{
	"data": {
		"bytecode": {
			"linkReferences": {},
			"object": "6080604052348015600f57600080fd5b50607580601d6000396000f3fe6080604052348015600f57600080fd5b506004361060285760003560e01c8063946644cd14602d575b600080fd5b60336035565b005b600560008190555056fea264697066735822122071a1c4ac19470a1212011604a2aacb2c849f99c0d5e52e2cb2cf040294f1f4bb64736f6c63430006000033",
			"opcodes": "PUSH1 0x80 PUSH1 0x40 MSTORE CALLVALUE DUP1 ISZERO PUSH1 0xF JUMPI PUSH1 0x0 DUP1 REVERT JUMPDEST POP PUSH1 0x75 DUP1 PUSH1 0x1D PUSH1 0x0 CODECOPY PUSH1 0x0 RETURN INVALID PUSH1 0x80 PUSH1 0x40 MSTORE CALLVALUE DUP1 ISZERO PUSH1 0xF JUMPI PUSH1 0x0 DUP1 REVERT JUMPDEST POP PUSH1 0x4 CALLDATASIZE LT PUSH1 0x28 JUMPI PUSH1 0x0 CALLDATALOAD PUSH1 0xE0 SHR DUP1 PUSH4 0x946644CD EQ PUSH1 0x2D JUMPI JUMPDEST PUSH1 0x0 DUP1 REVERT JUMPDEST PUSH1 0x33 PUSH1 0x35 JUMP JUMPDEST STOP JUMPDEST PUSH1 0x5 PUSH1 0x0 DUP2 SWAP1 SSTORE POP JUMP INVALID LOG2 PUSH5 0x6970667358 0x22 SLT KECCAK256 PUSH18 0xA1C4AC19470A1212011604A2AACB2C849F99 0xC0 0xD5 0xE5 0x2E 0x2C 0xB2 0xCF DIV MUL SWAP5 CALL DELEGATECALL 0xBB PUSH5 0x736F6C6343 STOP MOD STOP STOP CALLER "
		},
		"gasEstimates": {
			"creation": {
				"codeDepositCost": "23400",
				"executionCost": "75",
				"totalCost": "23475"
			},
			"external": {
				"fun()": "20136"
			}
		},
		"methodIdentifiers": {
			"fun()": "946644cd"
		}
	},
	"abi": [
		{
			"inputs": [],
			"name": "fun",
			"outputs": [],
			"stateMutability": "nonpayable",
			"type": "function"
		}
	]
}